{
    "_format": "hh-sol-artifact-1",
    "contractName": "Transactions",
    "sourceName": "contracts/Transactions.sol",
    "abi": [
        {
            "anonymous": false,
            "inputs": [
                {
                    "indexed": false,
                    "internalType": "address",
                    "name": "from",
                    "type": "address"
                },
                {
                    "indexed": false,
                    "internalType": "address",
                    "name": "receiver",
                    "type": "address"
                },
                {
                    "indexed": false,
                    "internalType": "uint256",
                    "name": "amount",
                    "type": "uint256"
                },
                {
                    "indexed": false,
                    "internalType": "string",
                    "name": "message",
                    "type": "string"
                },
                {
                    "indexed": false,
                    "internalType": "uint256",
                    "name": "timestamp",
                    "type": "uint256"
                },
                {
                    "indexed": false,
                    "internalType": "string",
                    "name": "keyword",
                    "type": "string"
                }
            ],
            "name": "Transfer",
            "type": "event"
        },
        {
            "inputs": [
                {
                    "internalType": "address payable",
                    "name": "receiver",
                    "type": "address"
                },
                {
                    "internalType": "uint256",
                    "name": "amount",
                    "type": "uint256"
                },
                {
                    "internalType": "string",
                    "name": "message",
                    "type": "string"
                },
                {
                    "internalType": "string",
                    "name": "keyword",
                    "type": "string"
                }
            ],
            "name": "addToBlockchain",
            "outputs": [],
            "stateMutability": "nonpayable",
            "type": "function"
        },
        {
            "inputs": [],
            "name": "getAllTransactions",
            "outputs": [
                {
                    "components": [
                        {
                            "internalType": "address",
                            "name": "sender",
                            "type": "address"
                        },
                        {
                            "internalType": "address",
                            "name": "receiver",
                            "type": "address"
                        },
                        {
                            "internalType": "uint256",
                            "name": "amount",
                            "type": "uint256"
                        },
                        {
                            "internalType": "string",
                            "name": "message",
                            "type": "string"
                        },
                        {
                            "internalType": "uint256",
                            "name": "timestamp",
                            "type": "uint256"
                        },
                        {
                            "internalType": "string",
                            "name": "keyword",
                            "type": "string"
                        }
                    ],
                    "internalType": "struct Transactions.TransferStruct[]",
                    "name": "",
                    "type": "tuple[]"
                }
            ],
            "stateMutability": "view",
            "type": "function"
        },
        {
            "inputs": [],
            "name": "getTransactionCount",
            "outputs": [
                {
                    "internalType": "uint256",
                    "name": "",
                    "type": "uint256"
                }
            ],
            "stateMutability": "view",
            "type": "function"
        }
    ],
    "bytecode": "0x6080604052600436106100345760003560e01c806301ffc9a714610039578063dbcdaf5b1461007e578063ec1cccf8146100a0575b600080fd5b34801561004557600080fd5b5061006a6100543660046105da565b6001600160e01b0319166337d163a360e01b1490565b604051901515815260200160405180910390f35b34801561008a57600080fd5b5061009e61009936600461066c565b6100b3565b005b61009e6100ae3660046106df565b6101b2565b6001600160a01b0385166100da5760405163d92e233d60e01b815260040160405180910390fd5b600083116100fb57604051631f2a200560e01b815260040160405180910390fd5b600081900361011d57604051633ba0191160e01b815260040160405180910390fd5b6001600160a01b0385163303610146576040516309d030a360e11b815260040160405180910390fd5b6101528433878661030e565b836001600160a01b0316856001600160a01b0316336001600160a01b03167fc2e41b3d49bbccbac6ceb142bad6119608adf4f1ee1ca5cc6fc332e0ca2fc6028585886040516101a393929190610734565b60405180910390a45050505050565b6001600160a01b0383166101d95760405163d92e233d60e01b815260040160405180910390fd5b600034116101fa57604051631f2a200560e01b815260040160405180910390fd5b600081900361021c57604051633ba0191160e01b815260040160405180910390fd5b6001600160a01b0383163303610245576040516309d030a360e11b815260040160405180910390fd5b6000836001600160a01b03163460405160006040518083038185875af1925050503d8060008114610292576040519150601f19603f3d011682016040523d82523d6000602084013e610297565b606091505b50509050806102b9576040516312171d8360e31b815260040160405180910390fd5b836001600160a01b0316336001600160a01b03167fd7dc0722e6bc9987e505da6eb6e28fb6cab480d622b47801116897623105569485853460405161030093929190610734565b60405180910390a350505050565b604080516001600160a01b0385811660248301528416604482015260648082018490528251808303909101815260849091019091526020810180516001600160e01b03166323b872dd60e01b17905261036890859061036e565b50505050565b60006103c3826040518060400160405280602081526020017f5361666545524332303a206c6f772d6c6576656c2063616c6c206661696c6564815250856001600160a01b031661044a9092919063ffffffff16565b80519091501561044557808060200190518101906103e1919061076d565b6104455760405162461bcd60e51b815260206004820152602a60248201527f5361666545524332303a204552433230206f7065726174696f6e20646964206e6044820152691bdd081cdd58d8d9595960b21b60648201526084015b60405180910390fd5b505050565b60606104598484600085610461565b949350505050565b6060824710156104c25760405162461bcd60e51b815260206004820152602660248201527f416464726573733a20696e73756666696369656e742062616c616e636520666f6044820152651c8818d85b1b60d21b606482015260840161043c565b600080866001600160a01b031685876040516104de91906107b3565b60006040518083038185875af1925050503d806000811461051b576040519150601f19603f3d011682016040523d82523d6000602084013e610520565b606091505b50915091506105318783838761053c565b979650505050505050565b606083156105ab5782516000036105a4576001600160a01b0385163b6105a45760405162461bcd60e51b815260206004820152601d60248201527f416464726573733a2063616c6c20746f206e6f6e2d636f6e7472616374000000604482015260640161043c565b5081610459565b61045983838151156105c05781518083602001fd5b8060405162461bcd60e51b815260040161043c91906107cf565b6000602082840312156105ec57600080fd5b81356001600160e01b03198116811461060457600080fd5b9392505050565b6001600160a01b038116811461062057600080fd5b50565b60008083601f84011261063557600080fd5b50813567ffffffffffffffff81111561064d57600080fd5b60208301915083602082850101111561066557600080fd5b9250929050565b60008060008060006080868803121561068457600080fd5b853561068f8161060b565b9450602086013561069f8161060b565b935060408601359250606086013567ffffffffffffffff8111156106c257600080fd5b6106ce88828901610623565b969995985093965092949392505050565b6000806000604084860312156106f457600080fd5b83356106ff8161060b565b9250602084013567ffffffffffffffff81111561071b57600080fd5b61072786828701610623565b9497909650939450505050565b604081528260408201528284606083013760006060848301015260006060601f19601f8601168301019050826020830152949350505050565b60006020828403121561077f57600080fd5b8151801515811461060457600080fd5b60005b838110156107aa578181015183820152602001610792565b50506000910152565b600082516107c581846020870161078f565b9190910192915050565b60208152600082518060208401526107ee81604085016020870161078f565b601f01601f1916919091016040019291505056fea2646970667358221220142e33f9fe057e8a408c61e1023a293537707c9ade6bae249f5a6d550b0ac80d64736f6c63430008160033",
    "linkReferences": {},
    "deployedLinkReferences": {}
}